{
  "_format": "hh-sol-artifact-1",
  "contractName": "TradeVault",
  "sourceName": "contracts/TradeVault.sol",
  "abi": [
    {
      "anonymous": false,
      "inputs": [
        {
          "indexed": false,
          "internalType": "uint256",
          "name": "tradeId",
          "type": "uint256"
        },
        {
          "indexed": false,
          "internalType": "address",
          "name": "from",
          "type": "address"
        },
        {
          "indexed": false,
          "internalType": "uint256",
          "name": "amount",
          "type": "uint256"
        }
      ],
      "name": "Deposited",
      "type": "event"
    },
    {
      "anonymous": false,
      "inputs": [
        {
          "indexed": false,
          "internalType": "uint256",
          "name": "tradeId",
          "type": "uint256"
        }
      ],
      "name": "TradeCompleted",
      "type": "event"
    },
    {
      "anonymous": false,
      "inputs": [
        {
          "indexed": false,
          "internalType": "uint256",
          "name": "tradeId",
          "type": "uint256"
        },
        {
          "indexed": false,
          "internalType": "address",
          "name": "partyA",
          "type": "address"
        },
        {
          "indexed": false,
          "internalType": "address",
          "name": "partyB",
          "type": "address"
        },
        {
          "indexed": false,
          "internalType": "uint256",
          "name": "amountA",
          "type": "uint256"
        },
        {
          "indexed": false,
          "internalType": "uint256",
          "name": "amountB",
          "type": "uint256"
        }
      ],
      "name": "TradeCreated",
      "type": "event"
    },
    {
      "inputs": [
        {
          "internalType": "address",
          "name": "_partyB",
          "type": "address"
        },
        {
          "internalType": "uint256",
          "name": "_amountA",
          "type": "uint256"
        },
        {
          "internalType": "uint256",
          "name": "_amountB",
          "type": "uint256"
        }
      ],
      "name": "createTrade",
      "outputs": [
        {
          "internalType": "uint256",
          "name": "",
          "type": "uint256"
        }
      ],
      "stateMutability": "nonpayable",
      "type": "function"
    },
    {
      "inputs": [
        {
          "internalType": "uint256",
          "name": "tradeId",
          "type": "uint256"
        }
      ],
      "name": "deposit",
      "outputs": [],
      "stateMutability": "payable",
      "type": "function"
    },
    {
      "inputs": [
        {
          "internalType": "uint256",
          "name": "tradeId",
          "type": "uint256"
        }
      ],
      "name": "getTrade",
      "outputs": [
        {
          "components": [
            {
              "internalType": "address",
              "name": "partyA",
              "type": "address"
            },
            {
              "internalType": "address",
              "name": "partyB",
              "type": "address"
            },
            {
              "internalType": "uint256",
              "name": "amountA",
              "type": "uint256"
            },
            {
              "internalType": "uint256",
              "name": "amountB",
              "type": "uint256"
            },
            {
              "internalType": "bool",
              "name": "depositedA",
              "type": "bool"
            },
            {
              "internalType": "bool",
              "name": "depositedB",
              "type": "bool"
            },
            {
              "internalType": "bool",
              "name": "completed",
              "type": "bool"
            }
          ],
          "internalType": "struct TradeVault.Trade",
          "name": "",
          "type": "tuple"
        }
      ],
      "stateMutability": "view",
      "type": "function"
    },
    {
      "inputs": [],
      "name": "tradeCounter",
      "outputs": [
        {
          "internalType": "uint256",
          "name": "",
          "type": "uint256"
        }
      ],
      "stateMutability": "view",
      "type": "function"
    },
    {
      "inputs": [
        {
          "internalType": "uint256",
          "name": "",
          "type": "uint256"
        }
      ],
      "name": "trades",
      "outputs": [
        {
          "internalType": "address",
          "name": "partyA",
          "type": "address"
        },
        {
          "internalType": "address",
          "name": "partyB",
          "type": "address"
        },
        {
          "internalType": "uint256",
          "name": "amountA",
          "type": "uint256"
        },
        {
          "internalType": "uint256",
          "name": "amountB",
          "type": "uint256"
        },
        {
          "internalType": "bool",
          "name": "depositedA",
          "type": "bool"
        },
        {
          "internalType": "bool",
          "name": "depositedB",
          "type": "bool"
        },
        {
          "internalType": "bool",
          "name": "completed",
          "type": "bool"
        }
      ],
      "stateMutability": "view",
      "type": "function"
    }
  ],
  "bytecode": "0x6080604052600060015534801561001557600080fd5b506107e1806100256000396000f3fe60806040526004361061004a5760003560e01c80631e6c598e1461004f5780632db25e0514610106578063660d15b51461023c578063ad06bfe914610260578063b6b55f2514610280575b600080fd5b34801561005b57600080fd5b506100bb61006a36600461072a565b600060208190529081526040902080546001820154600283015460038401546004909401546001600160a01b03938416949390921692909160ff808216916101008104821691620100009091041687565b604080516001600160a01b03988916815297909616602088015294860193909352606085019190915215156080840152151560a0830152151560c082015260e0015b60405180910390f35b34801561011257600080fd5b506101d761012136600461072a565b6040805160e081018252600080825260208201819052918101829052606081018290526080810182905260a0810182905260c08101919091525060009081526020818152604091829020825160e08101845281546001600160a01b039081168252600183015416928101929092526002810154928201929092526003820154606082015260049091015460ff8082161515608084015261010082048116151560a08401526201000090910416151560c082015290565b6040516100fd919081516001600160a01b03908116825260208084015190911690820152604080830151908201526060808301519082015260808083015115159082015260a08281015115159082015260c09182015115159181019190915260e00190565b34801561024857600080fd5b5061025260015481565b6040519081526020016100fd565b34801561026c57600080fd5b5061025261027b366004610743565b610295565b61029361028e36600461072a565b6103eb565b005b60018054600091826102a683610784565b90915550506040805160e081018252338082526001600160a01b0387811660208085019182528486018981526060860189815260006080880181815260a0890182815260c08a0183815260018054855296849052928b902099518a549089166001600160a01b0319918216178b5596518a870180549190991697169690961790965591516002880155516003870155925160049095018054925193511515620100000262ff0000199415156101000261ff00199715159790971661ffff1990941693909317959095179290921617909255905491517ff7cdeae600171136f77d3df848176c47ce8102a3be1a47edcfda2b7b892fe301926103d89290918890889088909485526001600160a01b0393841660208601529190921660408401526060830191909152608082015260a00190565b60405180910390a1506001549392505050565b600081815260208190526040902080548291906001600160a01b0316331480610420575060018101546001600160a01b031633145b6104655760405162461bcd60e51b8152602060048201526011602482015270139bdd0818481c185c9d1a58da5c185b9d607a1b60448201526064015b60405180910390fd5b6000838152602081905260409020600481015462010000900460ff16156104ce5760405162461bcd60e51b815260206004820152601760248201527f547261646520616c726561647920636f6d706c65746564000000000000000000604482015260640161045c565b80546001600160a01b0316330361053b57806002015434146105275760405162461bcd60e51b815260206004820152601260248201527157726f6e6720616d6f756e7420666f72204160701b604482015260640161045c565b60048101805460ff19166001179055610595565b806003015434146105835760405162461bcd60e51b81526020600482015260126024820152712bb937b7339030b6b7bab73a103337b9102160711b604482015260640161045c565b60048101805461ff0019166101001790555b60408051858152336020820152348183015290517f1599c0fcf897af5babc2bfcf707f5dc050f841b044d97c3251ecec35b9abf80b9181900360600190a1600481015460ff1680156105f057506004810154610100900460ff165b156105fe576105fe84610604565b50505050565b6000818152602081905260409020600481015462010000900460ff16156106615760405162461bcd60e51b8152602060048201526011602482015270105b1c9958591e4818dbdb5c1b195d1959607a1b604482015260640161045c565b60048101805462ff0000191662010000179055805460038201546040516001600160a01b039092169181156108fc0291906000818181858888f193505050501580156106b1573d6000803e3d6000fd5b50600181015460028201546040516001600160a01b039092169181156108fc0291906000818181858888f193505050501580156106f2573d6000803e3d6000fd5b506040518281527f60f91a26281f20fb528663f4da55773c83e2ee8a7a5dddb6d1753749e81dc49b9060200160405180910390a15050565b60006020828403121561073c57600080fd5b5035919050565b60008060006060848603121561075857600080fd5b83356001600160a01b038116811461076f57600080fd5b95602085013595506040909401359392505050565b6000600182016107a457634e487b7160e01b600052601160045260246000fd5b506001019056fea2646970667358221220bf10411afc3f7073c67850bcd16b5e62cf553d081510b3a4d4ca5999c274664f64736f6c63430008120033",
  "linkReferences": {},
  "deployedLinkReferences": {}
}